{
  "_format": "hh-sol-artifact-1",
  "contractName": "MemberNFT",
  "sourceName": "contracts/MemberNFT.sol",
  "abi": [
    {
      "inputs": [],
      "stateMutability": "nonpayable",
      "type": "constructor"
    },
    {
      "anonymous": false,
      "inputs": [
        {
          "indexed": true,
          "internalType": "address",
          "name": "owner",
          "type": "address"
        },
        {
          "indexed": true,
          "internalType": "address",
          "name": "approved",
          "type": "address"
        },
        {
          "indexed": true,
          "internalType": "uint256",
          "name": "tokenId",
          "type": "uint256"
        }
      ],
      "name": "Approval",
      "type": "event"
    },
    {
      "anonymous": false,
      "inputs": [
        {
          "indexed": true,
          "internalType": "address",
          "name": "owner",
          "type": "address"
        },
        {
          "indexed": true,
          "internalType": "address",
          "name": "operator",
          "type": "address"
        },
        {
          "indexed": false,
          "internalType": "bool",
          "name": "approved",
          "type": "bool"
        }
      ],
      "name": "ApprovalForAll",
      "type": "event"
    },
    {
      "anonymous": false,
      "inputs": [
        {
          "indexed": false,
          "internalType": "uint256",
          "name": "_fromTokenId",
          "type": "uint256"
        },
        {
          "indexed": false,
          "internalType": "uint256",
          "name": "_toTokenId",
          "type": "uint256"
        }
      ],
      "name": "BatchMetadataUpdate",
      "type": "event"
    },
    {
      "anonymous": false,
      "inputs": [
        {
          "indexed": false,
          "internalType": "uint256",
          "name": "_tokenId",
          "type": "uint256"
        }
      ],
      "name": "MetadataUpdate",
      "type": "event"
    },
    {
      "anonymous": false,
      "inputs": [
        {
          "indexed": true,
          "internalType": "address",
          "name": "previousOwner",
          "type": "address"
        },
        {
          "indexed": true,
          "internalType": "address",
          "name": "newOwner",
          "type": "address"
        }
      ],
      "name": "OwnershipTransferred",
      "type": "event"
    },
    {
      "anonymous": false,
      "inputs": [
        {
          "indexed": true,
          "internalType": "address",
          "name": "to",
          "type": "address"
        },
        {
          "indexed": true,
          "internalType": "uint256",
          "name": "tokenId",
          "type": "uint256"
        },
        {
          "indexed": false,
          "internalType": "string",
          "name": "uri",
          "type": "string"
        }
      ],
      "name": "TokenURIChanged",
      "type": "event"
    },
    {
      "anonymous": false,
      "inputs": [
        {
          "indexed": true,
          "internalType": "address",
          "name": "from",
          "type": "address"
        },
        {
          "indexed": true,
          "internalType": "address",
          "name": "to",
          "type": "address"
        },
        {
          "indexed": true,
          "internalType": "uint256",
          "name": "tokenId",
          "type": "uint256"
        }
      ],
      "name": "Transfer",
      "type": "event"
    },
    {
      "inputs": [
        {
          "internalType": "address",
          "name": "to",
          "type": "address"
        },
        {
          "internalType": "uint256",
          "name": "tokenId",
          "type": "uint256"
        }
      ],
      "name": "approve",
      "outputs": [],
      "stateMutability": "nonpayable",
      "type": "function"
    },
    {
      "inputs": [
        {
          "internalType": "address",
          "name": "owner",
          "type": "address"
        }
      ],
      "name": "balanceOf",
      "outputs": [
        {
          "internalType": "uint256",
          "name": "",
          "type": "uint256"
        }
      ],
      "stateMutability": "view",
      "type": "function"
    },
    {
      "inputs": [
        {
          "internalType": "uint256",
          "name": "tokenId",
          "type": "uint256"
        }
      ],
      "name": "getApproved",
      "outputs": [
        {
          "internalType": "address",
          "name": "",
          "type": "address"
        }
      ],
      "stateMutability": "view",
      "type": "function"
    },
    {
      "inputs": [
        {
          "internalType": "address",
          "name": "owner",
          "type": "address"
        },
        {
          "internalType": "address",
          "name": "operator",
          "type": "address"
        }
      ],
      "name": "isApprovedForAll",
      "outputs": [
        {
          "internalType": "bool",
          "name": "",
          "type": "bool"
        }
      ],
      "stateMutability": "view",
      "type": "function"
    },
    {
      "inputs": [],
      "name": "name",
      "outputs": [
        {
          "internalType": "string",
          "name": "",
          "type": "string"
        }
      ],
      "stateMutability": "view",
      "type": "function"
    },
    {
      "inputs": [
        {
          "internalType": "address",
          "name": "to",
          "type": "address"
        },
        {
          "internalType": "string",
          "name": "uri",
          "type": "string"
        }
      ],
      "name": "nftMint",
      "outputs": [],
      "stateMutability": "nonpayable",
      "type": "function"
    },
    {
      "inputs": [],
      "name": "owner",
      "outputs": [
        {
          "internalType": "address",
          "name": "",
          "type": "address"
        }
      ],
      "stateMutability": "view",
      "type": "function"
    },
    {
      "inputs": [
        {
          "internalType": "uint256",
          "name": "tokenId",
          "type": "uint256"
        }
      ],
      "name": "ownerOf",
      "outputs": [
        {
          "internalType": "address",
          "name": "",
          "type": "address"
        }
      ],
      "stateMutability": "view",
      "type": "function"
    },
    {
      "inputs": [],
      "name": "renounceOwnership",
      "outputs": [],
      "stateMutability": "nonpayable",
      "type": "function"
    },
    {
      "inputs": [
        {
          "internalType": "address",
          "name": "from",
          "type": "address"
        },
        {
          "internalType": "address",
          "name": "to",
          "type": "address"
        },
        {
          "internalType": "uint256",
          "name": "tokenId",
          "type": "uint256"
        }
      ],
      "name": "safeTransferFrom",
      "outputs": [],
      "stateMutability": "nonpayable",
      "type": "function"
    },
    {
      "inputs": [
        {
          "internalType": "address",
          "name": "from",
          "type": "address"
        },
        {
          "internalType": "address",
          "name": "to",
          "type": "address"
        },
        {
          "internalType": "uint256",
          "name": "tokenId",
          "type": "uint256"
        },
        {
          "internalType": "bytes",
          "name": "data",
          "type": "bytes"
        }
      ],
      "name": "safeTransferFrom",
      "outputs": [],
      "stateMutability": "nonpayable",
      "type": "function"
    },
    {
      "inputs": [
        {
          "internalType": "address",
          "name": "operator",
          "type": "address"
        },
        {
          "internalType": "bool",
          "name": "approved",
          "type": "bool"
        }
      ],
      "name": "setApprovalForAll",
      "outputs": [],
      "stateMutability": "nonpayable",
      "type": "function"
    },
    {
      "inputs": [
        {
          "internalType": "bytes4",
          "name": "interfaceId",
          "type": "bytes4"
        }
      ],
      "name": "supportsInterface",
      "outputs": [
        {
          "internalType": "bool",
          "name": "",
          "type": "bool"
        }
      ],
      "stateMutability": "view",
      "type": "function"
    },
    {
      "inputs": [],
      "name": "symbol",
      "outputs": [
        {
          "internalType": "string",
          "name": "",
          "type": "string"
        }
      ],
      "stateMutability": "view",
      "type": "function"
    },
    {
      "inputs": [
        {
          "internalType": "uint256",
          "name": "index",
          "type": "uint256"
        }
      ],
      "name": "tokenByIndex",
      "outputs": [
        {
          "internalType": "uint256",
          "name": "",
          "type": "uint256"
        }
      ],
      "stateMutability": "view",
      "type": "function"
    },
    {
      "inputs": [
        {
          "internalType": "address",
          "name": "owner",
          "type": "address"
        },
        {
          "internalType": "uint256",
          "name": "index",
          "type": "uint256"
        }
      ],
      "name": "tokenOfOwnerByIndex",
      "outputs": [
        {
          "internalType": "uint256",
          "name": "",
          "type": "uint256"
        }
      ],
      "stateMutability": "view",
      "type": "function"
    },
    {
      "inputs": [
        {
          "internalType": "uint256",
          "name": "tokenId",
          "type": "uint256"
        }
      ],
      "name": "tokenURI",
      "outputs": [
        {
          "internalType": "string",
          "name": "",
          "type": "string"
        }
      ],
      "stateMutability": "view",
      "type": "function"
    },
    {
      "inputs": [],
      "name": "totalSupply",
      "outputs": [
        {
          "internalType": "uint256",
          "name": "",
          "type": "uint256"
        }
      ],
      "stateMutability": "view",
      "type": "function"
    },
    {
      "inputs": [
        {
          "internalType": "address",
          "name": "from",
          "type": "address"
        },
        {
          "internalType": "address",
          "name": "to",
          "type": "address"
        },
        {
          "internalType": "uint256",
          "name": "tokenId",
          "type": "uint256"
        }
      ],
      "name": "transferFrom",
      "outputs": [],
      "stateMutability": "nonpayable",
      "type": "function"
    },
    {
      "inputs": [
        {
          "internalType": "address",
          "name": "newOwner",
          "type": "address"
        }
      ],
      "name": "transferOwnership",
      "outputs": [],
      "stateMutability": "nonpayable",
      "type": "function"
    }
  ],
  "bytecode": "0x60806040523480156200001157600080fd5b506040518060400160405280600981526020017f4d656d6265724e465400000000000000000000000000000000000000000000008152506040518060400160405280600381526020017f4d454d0000000000000000000000000000000000000000000000000000000000815250816000908051906020019062000096929190620001a6565b508060019080519060200190620000af929190620001a6565b505050620000d2620000c6620000d860201b60201c565b620000e060201b60201c565b620002bb565b600033905090565b6000600b60009054906101000a900473ffffffffffffffffffffffffffffffffffffffff16905081600b60006101000a81548173ffffffffffffffffffffffffffffffffffffffff021916908373ffffffffffffffffffffffffffffffffffffffff1602179055508173ffffffffffffffffffffffffffffffffffffffff168173ffffffffffffffffffffffffffffffffffffffff167f8be0079c531659141344cd1fd0a4f28419497f9722a3daafe3b4186f6b6457e060405160405180910390a35050565b828054620001b49062000285565b90600052602060002090601f016020900481019282620001d8576000855562000224565b82601f10620001f357805160ff191683800117855562000224565b8280016001018555821562000224579182015b828111156200022357825182559160200191906001019062000206565b5b50905062000233919062000237565b5090565b5b808211156200025257600081600090555060010162000238565b5090565b7f4e487b7100000000000000000000000000000000000000000000000000000000600052602260045260246000fd5b600060028204905060018216806200029e57607f821691505b60208210811415620002b557620002b462000256565b5b50919050565b61368680620002cb6000396000f3fe608060405234801561001057600080fd5b506004361061012c5760003560e01c80636352211e116100ad578063a22cb46511610071578063a22cb46514610343578063b88d4fde1461035f578063c87b56dd1461037b578063e985e9c5146103ab578063f2fde38b146103db5761012c565b80636352211e1461029d57806370a08231146102cd578063715018a6146102fd5780638da5cb5b1461030757806395d89b41146103255761012c565b806323b872dd116100f457806323b872dd146101e95780632f745c591461020557806330e960891461023557806342842e0e146102515780634f6ccce71461026d5761012c565b806301ffc9a71461013157806306fdde0314610161578063081812fc1461017f578063095ea7b3146101af57806318160ddd146101cb575b600080fd5b61014b60048036038101906101469190612460565b6103f7565b60405161015891906124a8565b60405180910390f35b610169610409565b604051610176919061255c565b60405180910390f35b610199600480360381019061019491906125b4565b61049b565b6040516101a69190612622565b60405180910390f35b6101c960048036038101906101c49190612669565b6104e1565b005b6101d36105f9565b6040516101e091906126b8565b60405180910390f35b61020360048036038101906101fe91906126d3565b610606565b005b61021f600480360381019061021a9190612669565b610666565b60405161022c91906126b8565b60405180910390f35b61024f600480360381019061024a919061278b565b61070b565b005b61026b600480360381019061026691906126d3565b6107da565b005b610287600480360381019061028291906125b4565b6107fa565b60405161029491906126b8565b60405180910390f35b6102b760048036038101906102b291906125b4565b61086b565b6040516102c49190612622565b60405180910390f35b6102e760048036038101906102e291906127eb565b6108f2565b6040516102f491906126b8565b60405180910390f35b6103056109aa565b005b61030f6109be565b60405161031c9190612622565b60405180910390f35b61032d6109e8565b60405161033a919061255c565b60405180910390f35b61035d60048036038101906103589190612844565b610a7a565b005b610379600480360381019061037491906129b4565b610a90565b005b610395600480360381019061039091906125b4565b610af2565b6040516103a2919061255c565b60405180910390f35b6103c560048036038101906103c09190612a37565b610b04565b6040516103d291906124a8565b60405180910390f35b6103f560048036038101906103f091906127eb565b610b98565b005b600061040282610c1c565b9050919050565b60606000805461041890612aa6565b80601f016020809104026020016040519081016040528092919081815260200182805461044490612aa6565b80156104915780601f1061046657610100808354040283529160200191610491565b820191906000526020600020905b81548152906001019060200180831161047457829003601f168201915b5050505050905090565b60006104a682610c7d565b6004600083815260200190815260200160002060009054906101000a900473ffffffffffffffffffffffffffffffffffffffff169050919050565b60006104ec8261086b565b90508073ffffffffffffffffffffffffffffffffffffffff168373ffffffffffffffffffffffffffffffffffffffff16141561055d576040517f08c379a000000000000000000000000000000000000000000000000000000000815260040161055490612b4a565b60405180910390fd5b8073ffffffffffffffffffffffffffffffffffffffff1661057c610cc8565b73ffffffffffffffffffffffffffffffffffffffff1614806105ab57506105aa816105a5610cc8565b610b04565b5b6105ea576040517f08c379a00000000000000000000000000000000000000000000000000000000081526004016105e190612bdc565b60405180910390fd5b6105f48383610cd0565b505050565b6000600880549050905090565b610617610611610cc8565b82610d89565b610656576040517f08c379a000000000000000000000000000000000000000000000000000000000815260040161064d90612c6e565b60405180910390fd5b610661838383610e1e565b505050565b6000610671836108f2565b82106106b2576040517f08c379a00000000000000000000000000000000000000000000000000000000081526004016106a990612d00565b60405180910390fd5b600660008473ffffffffffffffffffffffffffffffffffffffff1673ffffffffffffffffffffffffffffffffffffffff168152602001908152602001600020600083815260200190815260200160002054905092915050565b610713611118565b61071d600c611196565b6000610729600c6111ac565b905061073584826111ba565b6107838184848080601f016020809104026020016040519081016040528093929190818152602001838380828437600081840152601f19601f820116905080830192505050505050506113d8565b808473ffffffffffffffffffffffffffffffffffffffff167f8b781fcc9d1a958b4e7e04390a81f45bdec2dc61341e7b423a537074275dc70d85856040516107cc929190612d4d565b60405180910390a350505050565b6107f583838360405180602001604052806000815250610a90565b505050565b60006108046105f9565b8210610845576040517f08c379a000000000000000000000000000000000000000000000000000000000815260040161083c90612de3565b60405180910390fd5b6008828154811061085957610858612e03565b5b90600052602060002001549050919050565b60008061087783611483565b9050600073ffffffffffffffffffffffffffffffffffffffff168173ffffffffffffffffffffffffffffffffffffffff1614156108e9576040517f08c379a00000000000000000000000000000000000000000000000000000000081526004016108e090612e7e565b60405180910390fd5b80915050919050565b60008073ffffffffffffffffffffffffffffffffffffffff168273ffffffffffffffffffffffffffffffffffffffff161415610963576040517f08c379a000000000000000000000000000000000000000000000000000000000815260040161095a90612f10565b60405180910390fd5b600360008373ffffffffffffffffffffffffffffffffffffffff1673ffffffffffffffffffffffffffffffffffffffff168152602001908152602001600020549050919050565b6109b2611118565b6109bc60006114c0565b565b6000600b60009054906101000a900473ffffffffffffffffffffffffffffffffffffffff16905090565b6060600180546109f790612aa6565b80601f0160208091040260200160405190810160405280929190818152602001828054610a2390612aa6565b8015610a705780601f10610a4557610100808354040283529160200191610a70565b820191906000526020600020905b815481529060010190602001808311610a5357829003601f168201915b5050505050905090565b610a8c610a85610cc8565b8383611586565b5050565b610aa1610a9b610cc8565b83610d89565b610ae0576040517f08c379a0000000000000000000000000000000000000000000000000000000008152600401610ad790612c6e565b60405180910390fd5b610aec848484846116f3565b50505050565b6060610afd8261174f565b9050919050565b6000600560008473ffffffffffffffffffffffffffffffffffffffff1673ffffffffffffffffffffffffffffffffffffffff16815260200190815260200160002060008373ffffffffffffffffffffffffffffffffffffffff1673ffffffffffffffffffffffffffffffffffffffff16815260200190815260200160002060009054906101000a900460ff16905092915050565b610ba0611118565b600073ffffffffffffffffffffffffffffffffffffffff168173ffffffffffffffffffffffffffffffffffffffff161415610c10576040517f08c379a0000000000000000000000000000000000000000000000000000000008152600401610c0790612fa2565b60405180910390fd5b610c19816114c0565b50565b6000634906490660e01b7bffffffffffffffffffffffffffffffffffffffffffffffffffffffff1916827bffffffffffffffffffffffffffffffffffffffffffffffffffffffff19161480610c765750610c7582611862565b5b9050919050565b610c86816118dc565b610cc5576040517f08c379a0000000000000000000000000000000000000000000000000000000008152600401610cbc90612e7e565b60405180910390fd5b50565b600033905090565b816004600083815260200190815260200160002060006101000a81548173ffffffffffffffffffffffffffffffffffffffff021916908373ffffffffffffffffffffffffffffffffffffffff160217905550808273ffffffffffffffffffffffffffffffffffffffff16610d438361086b565b73ffffffffffffffffffffffffffffffffffffffff167f8c5be1e5ebec7d5bd14f71427d1e84f3dd0314c0f7b2291e5b200ac8c7c3b92560405160405180910390a45050565b600080610d958361086b565b90508073ffffffffffffffffffffffffffffffffffffffff168473ffffffffffffffffffffffffffffffffffffffff161480610dd75750610dd68185610b04565b5b80610e1557508373ffffffffffffffffffffffffffffffffffffffff16610dfd8461049b565b73ffffffffffffffffffffffffffffffffffffffff16145b91505092915050565b8273ffffffffffffffffffffffffffffffffffffffff16610e3e8261086b565b73ffffffffffffffffffffffffffffffffffffffff1614610e94576040517f08c379a0000000000000000000000000000000000000000000000000000000008152600401610e8b90613034565b60405180910390fd5b600073ffffffffffffffffffffffffffffffffffffffff168273ffffffffffffffffffffffffffffffffffffffff161415610f04576040517f08c379a0000000000000000000000000000000000000000000000000000000008152600401610efb906130c6565b60405180910390fd5b610f11838383600161191d565b8273ffffffffffffffffffffffffffffffffffffffff16610f318261086b565b73ffffffffffffffffffffffffffffffffffffffff1614610f87576040517f08c379a0000000000000000000000000000000000000000000000000000000008152600401610f7e90613034565b60405180910390fd5b6004600082815260200190815260200160002060006101000a81549073ffffffffffffffffffffffffffffffffffffffff02191690556001600360008573ffffffffffffffffffffffffffffffffffffffff1673ffffffffffffffffffffffffffffffffffffffff168152602001908152602001600020600082825403925050819055506001600360008473ffffffffffffffffffffffffffffffffffffffff1673ffffffffffffffffffffffffffffffffffffffff16815260200190815260200160002060008282540192505081905550816002600083815260200190815260200160002060006101000a81548173ffffffffffffffffffffffffffffffffffffffff021916908373ffffffffffffffffffffffffffffffffffffffff160217905550808273ffffffffffffffffffffffffffffffffffffffff168473ffffffffffffffffffffffffffffffffffffffff167fddf252ad1be2c89b69c2b068fc378daa952ba7f163c4a11628f55a4df523b3ef60405160405180910390a4611113838383600161192f565b505050565b611120610cc8565b73ffffffffffffffffffffffffffffffffffffffff1661113e6109be565b73ffffffffffffffffffffffffffffffffffffffff1614611194576040517f08c379a000000000000000000000000000000000000000000000000000000000815260040161118b90613132565b60405180910390fd5b565b6001816000016000828254019250508190555050565b600081600001549050919050565b600073ffffffffffffffffffffffffffffffffffffffff168273ffffffffffffffffffffffffffffffffffffffff16141561122a576040517f08c379a00000000000000000000000000000000000000000000000000000000081526004016112219061319e565b60405180910390fd5b611233816118dc565b15611273576040517f08c379a000000000000000000000000000000000000000000000000000000000815260040161126a9061320a565b60405180910390fd5b61128160008383600161191d565b61128a816118dc565b156112ca576040517f08c379a00000000000000000000000000000000000000000000000000000000081526004016112c19061320a565b60405180910390fd5b6001600360008473ffffffffffffffffffffffffffffffffffffffff1673ffffffffffffffffffffffffffffffffffffffff16815260200190815260200160002060008282540192505081905550816002600083815260200190815260200160002060006101000a81548173ffffffffffffffffffffffffffffffffffffffff021916908373ffffffffffffffffffffffffffffffffffffffff160217905550808273ffffffffffffffffffffffffffffffffffffffff16600073ffffffffffffffffffffffffffffffffffffffff167fddf252ad1be2c89b69c2b068fc378daa952ba7f163c4a11628f55a4df523b3ef60405160405180910390a46113d460008383600161192f565b5050565b6113e1826118dc565b611420576040517f08c379a00000000000000000000000000000000000000000000000000000000081526004016114179061329c565b60405180910390fd5b80600a60008481526020019081526020016000209080519060200190611447929190612351565b507ff8e1a15aba9398e019f0b49df1a4fde98ee17ae345cb5f6b5e2c27f5033e8ce78260405161147791906126b8565b60405180910390a15050565b60006002600083815260200190815260200160002060009054906101000a900473ffffffffffffffffffffffffffffffffffffffff169050919050565b6000600b60009054906101000a900473ffffffffffffffffffffffffffffffffffffffff16905081600b60006101000a81548173ffffffffffffffffffffffffffffffffffffffff021916908373ffffffffffffffffffffffffffffffffffffffff1602179055508173ffffffffffffffffffffffffffffffffffffffff168173ffffffffffffffffffffffffffffffffffffffff167f8be0079c531659141344cd1fd0a4f28419497f9722a3daafe3b4186f6b6457e060405160405180910390a35050565b8173ffffffffffffffffffffffffffffffffffffffff168373ffffffffffffffffffffffffffffffffffffffff1614156115f5576040517f08c379a00000000000000000000000000000000000000000000000000000000081526004016115ec90613308565b60405180910390fd5b80600560008573ffffffffffffffffffffffffffffffffffffffff1673ffffffffffffffffffffffffffffffffffffffff16815260200190815260200160002060008473ffffffffffffffffffffffffffffffffffffffff1673ffffffffffffffffffffffffffffffffffffffff16815260200190815260200160002060006101000a81548160ff0219169083151502179055508173ffffffffffffffffffffffffffffffffffffffff168373ffffffffffffffffffffffffffffffffffffffff167f17307eab39ab6107e8899845ad3d59bd9653f200f220920489ca2b5937696c31836040516116e691906124a8565b60405180910390a3505050565b6116fe848484610e1e565b61170a84848484611935565b611749576040517f08c379a00000000000000000000000000000000000000000000000000000000081526004016117409061339a565b60405180910390fd5b50505050565b606061175a82610c7d565b6000600a6000848152602001908152602001600020805461177a90612aa6565b80601f01602080910402602001604051908101604052809291908181526020018280546117a690612aa6565b80156117f35780601f106117c8576101008083540402835291602001916117f3565b820191906000526020600020905b8154815290600101906020018083116117d657829003601f168201915b505050505090506000611804611acc565b905060008151141561181a57819250505061185d565b60008251111561184f5780826040516020016118379291906133f6565b6040516020818303038152906040529250505061185d565b61185884611ae3565b925050505b919050565b60007f780e9d63000000000000000000000000000000000000000000000000000000007bffffffffffffffffffffffffffffffffffffffffffffffffffffffff1916827bffffffffffffffffffffffffffffffffffffffffffffffffffffffff191614806118d557506118d482611b4b565b5b9050919050565b60008073ffffffffffffffffffffffffffffffffffffffff166118fe83611483565b73ffffffffffffffffffffffffffffffffffffffff1614159050919050565b61192984848484611c2d565b50505050565b50505050565b60006119568473ffffffffffffffffffffffffffffffffffffffff16611d8d565b15611abf578373ffffffffffffffffffffffffffffffffffffffff1663150b7a0261197f610cc8565b8786866040518563ffffffff1660e01b81526004016119a1949392919061346f565b602060405180830381600087803b1580156119bb57600080fd5b505af19250505080156119ec57506040513d601f19601f820116820180604052508101906119e991906134d0565b60015b611a6f573d8060008114611a1c576040519150601f19603f3d011682016040523d82523d6000602084013e611a21565b606091505b50600081511415611a67576040517f08c379a0000000000000000000000000000000000000000000000000000000008152600401611a5e9061339a565b60405180910390fd5b805181602001fd5b63150b7a0260e01b7bffffffffffffffffffffffffffffffffffffffffffffffffffffffff1916817bffffffffffffffffffffffffffffffffffffffffffffffffffffffff191614915050611ac4565b600190505b949350505050565b606060405180602001604052806000815250905090565b6060611aee82610c7d565b6000611af8611acc565b90506000815111611b185760405180602001604052806000815250611b43565b80611b2284611db0565b604051602001611b339291906133f6565b6040516020818303038152906040525b915050919050565b60007f80ac58cd000000000000000000000000000000000000000000000000000000007bffffffffffffffffffffffffffffffffffffffffffffffffffffffff1916827bffffffffffffffffffffffffffffffffffffffffffffffffffffffff19161480611c1657507f5b5e139f000000000000000000000000000000000000000000000000000000007bffffffffffffffffffffffffffffffffffffffffffffffffffffffff1916827bffffffffffffffffffffffffffffffffffffffffffffffffffffffff1916145b80611c265750611c2582611e88565b5b9050919050565b611c3984848484611ef2565b6001811115611c7d576040517f08c379a0000000000000000000000000000000000000000000000000000000008152600401611c749061356f565b60405180910390fd5b6000829050600073ffffffffffffffffffffffffffffffffffffffff168573ffffffffffffffffffffffffffffffffffffffff161415611cc557611cc081611ef8565b611d04565b8373ffffffffffffffffffffffffffffffffffffffff168573ffffffffffffffffffffffffffffffffffffffff1614611d0357611d028582611f41565b5b5b600073ffffffffffffffffffffffffffffffffffffffff168473ffffffffffffffffffffffffffffffffffffffff161415611d4757611d42816120ae565b611d86565b8473ffffffffffffffffffffffffffffffffffffffff168473ffffffffffffffffffffffffffffffffffffffff1614611d8557611d84848261217f565b5b5b5050505050565b6000808273ffffffffffffffffffffffffffffffffffffffff163b119050919050565b606060006001611dbf846121fe565b01905060008167ffffffffffffffff811115611dde57611ddd612889565b5b6040519080825280601f01601f191660200182016040528015611e105781602001600182028036833780820191505090505b509050600082602001820190505b600115611e7d578080600190039150507f3031323334353637383961626364656600000000000000000000000000000000600a86061a8153600a8581611e6757611e6661358f565b5b0494506000851415611e7857611e7d565b611e1e565b819350505050919050565b60007f01ffc9a7000000000000000000000000000000000000000000000000000000007bffffffffffffffffffffffffffffffffffffffffffffffffffffffff1916827bffffffffffffffffffffffffffffffffffffffffffffffffffffffff1916149050919050565b50505050565b6008805490506009600083815260200190815260200160002081905550600881908060018154018082558091505060019003906000526020600020016000909190919091505550565b60006001611f4e846108f2565b611f5891906135ed565b905060006007600084815260200190815260200160002054905081811461203d576000600660008673ffffffffffffffffffffffffffffffffffffffff1673ffffffffffffffffffffffffffffffffffffffff168152602001908152602001600020600084815260200190815260200160002054905080600660008773ffffffffffffffffffffffffffffffffffffffff1673ffffffffffffffffffffffffffffffffffffffff168152602001908152602001600020600084815260200190815260200160002081905550816007600083815260200190815260200160002081905550505b6007600084815260200190815260200160002060009055600660008573ffffffffffffffffffffffffffffffffffffffff1673ffffffffffffffffffffffffffffffffffffffff16815260200190815260200160002060008381526020019081526020016000206000905550505050565b600060016008805490506120c291906135ed565b90506000600960008481526020019081526020016000205490506000600883815481106120f2576120f1612e03565b5b90600052602060002001549050806008838154811061211457612113612e03565b5b90600052602060002001819055508160096000838152602001908152602001600020819055506009600085815260200190815260200160002060009055600880548061216357612162613621565b5b6001900381819060005260206000200160009055905550505050565b600061218a836108f2565b905081600660008573ffffffffffffffffffffffffffffffffffffffff1673ffffffffffffffffffffffffffffffffffffffff168152602001908152602001600020600083815260200190815260200160002081905550806007600084815260200190815260200160002081905550505050565b600080600090507a184f03e93ff9f4daa797ed6e38ed64bf6a1f010000000000000000831061225c577a184f03e93ff9f4daa797ed6e38ed64bf6a1f01000000000000000083816122525761225161358f565b5b0492506040810190505b6d04ee2d6d415b85acef81000000008310612299576d04ee2d6d415b85acef8100000000838161228f5761228e61358f565b5b0492506020810190505b662386f26fc1000083106122c857662386f26fc1000083816122be576122bd61358f565b5b0492506010810190505b6305f5e10083106122f1576305f5e10083816122e7576122e661358f565b5b0492506008810190505b612710831061231657612710838161230c5761230b61358f565b5b0492506004810190505b60648310612339576064838161232f5761232e61358f565b5b0492506002810190505b600a8310612348576001810190505b80915050919050565b82805461235d90612aa6565b90600052602060002090601f01602090048101928261237f57600085556123c6565b82601f1061239857805160ff19168380011785556123c6565b828001600101855582156123c6579182015b828111156123c55782518255916020019190600101906123aa565b5b5090506123d391906123d7565b5090565b5b808211156123f05760008160009055506001016123d8565b5090565b6000604051905090565b600080fd5b600080fd5b60007fffffffff0000000000000000000000000000000000000000000000000000000082169050919050565b61243d81612408565b811461244857600080fd5b50565b60008135905061245a81612434565b92915050565b600060208284031215612476576124756123fe565b5b60006124848482850161244b565b91505092915050565b60008115159050919050565b6124a28161248d565b82525050565b60006020820190506124bd6000830184612499565b92915050565b600081519050919050565b600082825260208201905092915050565b60005b838110156124fd5780820151818401526020810190506124e2565b8381111561250c576000848401525b50505050565b6000601f19601f8301169050919050565b600061252e826124c3565b61253881856124ce565b93506125488185602086016124df565b61255181612512565b840191505092915050565b600060208201905081810360008301526125768184612523565b905092915050565b6000819050919050565b6125918161257e565b811461259c57600080fd5b50565b6000813590506125ae81612588565b92915050565b6000602082840312156125ca576125c96123fe565b5b60006125d88482850161259f565b91505092915050565b600073ffffffffffffffffffffffffffffffffffffffff82169050919050565b600061260c826125e1565b9050919050565b61261c81612601565b82525050565b60006020820190506126376000830184612613565b92915050565b61264681612601565b811461265157600080fd5b50565b6000813590506126638161263d565b92915050565b600080604083850312156126805761267f6123fe565b5b600061268e85828601612654565b925050602061269f8582860161259f565b9150509250929050565b6126b28161257e565b82525050565b60006020820190506126cd60008301846126a9565b92915050565b6000806000606084860312156126ec576126eb6123fe565b5b60006126fa86828701612654565b935050602061270b86828701612654565b925050604061271c8682870161259f565b9150509250925092565b600080fd5b600080fd5b600080fd5b60008083601f84011261274b5761274a612726565b5b8235905067ffffffffffffffff8111156127685761276761272b565b5b60208301915083600182028301111561278457612783612730565b5b9250929050565b6000806000604084860312156127a4576127a36123fe565b5b60006127b286828701612654565b935050602084013567ffffffffffffffff8111156127d3576127d2612403565b5b6127df86828701612735565b92509250509250925092565b600060208284031215612801576128006123fe565b5b600061280f84828501612654565b91505092915050565b6128218161248d565b811461282c57600080fd5b50565b60008135905061283e81612818565b92915050565b6000806040838503121561285b5761285a6123fe565b5b600061286985828601612654565b925050602061287a8582860161282f565b9150509250929050565b600080fd5b7f4e487b7100000000000000000000000000000000000000000000000000000000600052604160045260246000fd5b6128c182612512565b810181811067ffffffffffffffff821117156128e0576128df612889565b5b80604052505050565b60006128f36123f4565b90506128ff82826128b8565b919050565b600067ffffffffffffffff82111561291f5761291e612889565b5b61292882612512565b9050602081019050919050565b82818337600083830152505050565b600061295761295284612904565b6128e9565b90508281526020810184848401111561297357612972612884565b5b61297e848285612935565b509392505050565b600082601f83011261299b5761299a612726565b5b81356129ab848260208601612944565b91505092915050565b600080600080608085870312156129ce576129cd6123fe565b5b60006129dc87828801612654565b94505060206129ed87828801612654565b93505060406129fe8782880161259f565b925050606085013567ffffffffffffffff811115612a1f57612a1e612403565b5b612a2b87828801612986565b91505092959194509250565b60008060408385031215612a4e57612a4d6123fe565b5b6000612a5c85828601612654565b9250506020612a6d85828601612654565b9150509250929050565b7f4e487b7100000000000000000000000000000000000000000000000000000000600052602260045260246000fd5b60006002820490506001821680612abe57607f821691505b60208210811415612ad257612ad1612a77565b5b50919050565b7f4552433732313a20617070726f76616c20746f2063757272656e74206f776e6560008201527f7200000000000000000000000000000000000000000000000000000000000000602082015250565b6000612b346021836124ce565b9150612b3f82612ad8565b604082019050919050565b60006020820190508181036000830152612b6381612b27565b9050919050565b7f4552433732313a20617070726f76652063616c6c6572206973206e6f7420746f60008201527f6b656e206f776e6572206f7220617070726f76656420666f7220616c6c000000602082015250565b6000612bc6603d836124ce565b9150612bd182612b6a565b604082019050919050565b60006020820190508181036000830152612bf581612bb9565b9050919050565b7f4552433732313a2063616c6c6572206973206e6f7420746f6b656e206f776e6560008201527f72206f7220617070726f76656400000000000000000000000000000000000000602082015250565b6000612c58602d836124ce565b9150612c6382612bfc565b604082019050919050565b60006020820190508181036000830152612c8781612c4b565b9050919050565b7f455243373231456e756d657261626c653a206f776e657220696e646578206f7560008201527f74206f6620626f756e6473000000000000000000000000000000000000000000602082015250565b6000612cea602b836124ce565b9150612cf582612c8e565b604082019050919050565b60006020820190508181036000830152612d1981612cdd565b9050919050565b6000612d2c83856124ce565b9350612d39838584612935565b612d4283612512565b840190509392505050565b60006020820190508181036000830152612d68818486612d20565b90509392505050565b7f455243373231456e756d657261626c653a20676c6f62616c20696e646578206f60008201527f7574206f6620626f756e64730000000000000000000000000000000000000000602082015250565b6000612dcd602c836124ce565b9150612dd882612d71565b604082019050919050565b60006020820190508181036000830152612dfc81612dc0565b9050919050565b7f4e487b7100000000000000000000000000000000000000000000000000000000600052603260045260246000fd5b7f4552433732313a20696e76616c696420746f6b656e2049440000000000000000600082015250565b6000612e686018836124ce565b9150612e7382612e32565b602082019050919050565b60006020820190508181036000830152612e9781612e5b565b9050919050565b7f4552433732313a2061646472657373207a65726f206973206e6f74206120766160008201527f6c6964206f776e65720000000000000000000000000000000000000000000000602082015250565b6000612efa6029836124ce565b9150612f0582612e9e565b604082019050919050565b60006020820190508181036000830152612f2981612eed565b9050919050565b7f4f776e61626c653a206e6577206f776e657220697320746865207a65726f206160008201527f6464726573730000000000000000000000000000000000000000000000000000602082015250565b6000612f8c6026836124ce565b9150612f9782612f30565b604082019050919050565b60006020820190508181036000830152612fbb81612f7f565b9050919050565b7f4552433732313a207472616e736665722066726f6d20696e636f72726563742060008201527f6f776e6572000000000000000000000000000000000000000000000000000000602082015250565b600061301e6025836124ce565b915061302982612fc2565b604082019050919050565b6000602082019050818103600083015261304d81613011565b9050919050565b7f4552433732313a207472616e7366657220746f20746865207a65726f2061646460008201527f7265737300000000000000000000000000000000000000000000000000000000602082015250565b60006130b06024836124ce565b91506130bb82613054565b604082019050919050565b600060208201905081810360008301526130df816130a3565b9050919050565b7f4f776e61626c653a2063616c6c6572206973206e6f7420746865206f776e6572600082015250565b600061311c6020836124ce565b9150613127826130e6565b602082019050919050565b6000602082019050818103600083015261314b8161310f565b9050919050565b7f4552433732313a206d696e7420746f20746865207a65726f2061646472657373600082015250565b60006131886020836124ce565b915061319382613152565b602082019050919050565b600060208201905081810360008301526131b78161317b565b9050919050565b7f4552433732313a20746f6b656e20616c7265616479206d696e74656400000000600082015250565b60006131f4601c836124ce565b91506131ff826131be565b602082019050919050565b60006020820190508181036000830152613223816131e7565b9050919050565b7f45524337323155524953746f726167653a2055524920736574206f66206e6f6e60008201527f6578697374656e7420746f6b656e000000000000000000000000000000000000602082015250565b6000613286602e836124ce565b91506132918261322a565b604082019050919050565b600060208201905081810360008301526132b581613279565b9050919050565b7f4552433732313a20617070726f766520746f2063616c6c657200000000000000600082015250565b60006132f26019836124ce565b91506132fd826132bc565b602082019050919050565b60006020820190508181036000830152613321816132e5565b9050919050565b7f4552433732313a207472616e7366657220746f206e6f6e20455243373231526560008201527f63656976657220696d706c656d656e7465720000000000000000000000000000602082015250565b60006133846032836124ce565b915061338f82613328565b604082019050919050565b600060208201905081810360008301526133b381613377565b9050919050565b600081905092915050565b60006133d0826124c3565b6133da81856133ba565b93506133ea8185602086016124df565b80840191505092915050565b600061340282856133c5565b915061340e82846133c5565b91508190509392505050565b600081519050919050565b600082825260208201905092915050565b60006134418261341a565b61344b8185613425565b935061345b8185602086016124df565b61346481612512565b840191505092915050565b60006080820190506134846000830187612613565b6134916020830186612613565b61349e60408301856126a9565b81810360608301526134b08184613436565b905095945050505050565b6000815190506134ca81612434565b92915050565b6000602082840312156134e6576134e56123fe565b5b60006134f4848285016134bb565b91505092915050565b7f455243373231456e756d657261626c653a20636f6e736563757469766520747260008201527f616e7366657273206e6f7420737570706f727465640000000000000000000000602082015250565b60006135596035836124ce565b9150613564826134fd565b604082019050919050565b600060208201905081810360008301526135888161354c565b9050919050565b7f4e487b7100000000000000000000000000000000000000000000000000000000600052601260045260246000fd5b7f4e487b7100000000000000000000000000000000000000000000000000000000600052601160045260246000fd5b60006135f88261257e565b91506136038361257e565b925082821015613616576136156135be565b5b828203905092915050565b7f4e487b7100000000000000000000000000000000000000000000000000000000600052603160045260246000fdfea264697066735822122089d51df31acc8ff6aa62813679227f5d3b5c94c3f0e2a83d3e9851f0a9f95aee64736f6c63430008090033",
  "linkReferences": {},
  "deployedLinkReferences": {}
}